:03000000020AF7FA
:0C0AF700787FE4F6D8FD75810D020A2C12
:1008000043415441524143542054455354004C6F8A
:100810006164696E672E2E2E00434D443A43415465
:1008200041524143540A00474C41524520544553DC
:100830005400434D443A474C4152450A004C4F57EF
:1008400020434F4E545241535400434D443A4C4F71
:1008500057434F4E54524153540A004D454E552074
:1008600053454C45435445440050726573732031E1
:100870002C20322C206F72203300434D443A4D45DA
:100880004E550A00455849542F524553544152542D
:10089000004B494F534B2057454C434F4D45530058
:1008A000434D443A524553544152540A00496E70E4
:1008B00075743A20004572726F722F4465627567D5
:1008C000206B65792E004442473A0054455354202A
:0908D000594F55522045594500CD
:100A8200E4FFFEE4FDFC0DBD00010CBC04F8BDB0AA
:0C0A9200F50FBF00010EEF640A4E70E784
:010A9E002235
:090ACF007BFF120ABC7FC07E000F
:0C0AD8008FA0C2B2D2B3120A82C2B322B5
:0C0B03008FA0D2B2D2B3120A82C2B32279
:100A5C00120A827F387E00120AD87F0C7E00120A9E
:100A6C00D87F017E00120AD87F067E00120AD87F3A
:060A7C00807E00020AD892
:040AB8007A08790E31
:100ABC00120A9FFF600C120B03740129F9E43AFA35
:030ACC0080EE2297
:0C0B0F00758920758DFD759850D28E22DE
:080B1B008F993099FDC2992267
:100AE400120A9FFF600C120B1B740129F9E43AFAF5
:030AF40080EE226F
:100992007F0C7E007590FFC2902094067F013094F8
:1009A200FD222095087E007F023095FD22209608C8
:1009B2007E007F033096FD227590FFC2912094083D
:1009C2007E007F043094FD222095087E007F053052
:1009D20095FD222096087E007F063096FD227590B6
:1009E200FFC2922094087E007F073094FD2220955A
:1009F200087E007F083095FD222096087E007F0940
:100A02003096FD227590FFC2932094087E007F0AE3
:100A12003094FD22209507E4FEFF3095FD222096BA
:090A2200087E007F0B3096FD22D6
:010A2B0022A8
:1008D9008E0A8F0B7F017E00120AD87F807E00125C
:1008E9000AD8E50A7073E50B24FE601E14602B24F8
:1008F900F9603914604C240A705F7A087900120A89
:10090900CF120AB87A087919804C7A087927120A1D
:10091900CF120AB87A087932803C7BFF7A08793D90
:10092900120AD1120AB87A08794A802A7BFF7A0812
:10093900795B120AD17A087969120ABC7A08797A3C
:1009490080147BFF7A087984120AD17A0879911286
:100959000ABC7A0879A0020AE47BFF7A0879AD1209
:100969000ABCE50B2430FF120B03120AD47A08796A
:10097900B5120ABC7A0879C6120AE4E50B2430FFDD
:09098900120B1B7F0A120B1B224A
:100A2C00120A5C120B0F7BFF7A087991120AD17AA9
:060A3C000879CB120ABC90
:100A420075080075090C1209928E088F09E5096470
:080A52000C450860F11208D9FF
:020A5A0080E634
:100A9F00BB010689828A83E0225002E722BBFE0255
:090AAF00E32289828A83E4932288
:00000001FF
